:10000000022040008F828E83E0540100000070F8CF
:100010002278FFE4F6D8FD02209EC0E0C0F0C08345
:10002000C082C085C084C086758600C09375930069
:10003000C0D075D000C000C001C002C003C004C061
:1000400005C006C0077F04122ABB90005DE004F0E3
:10005000E0D3943B50030208ECA3E004F090005D71
:10006000E4F0A3E0D3943B500302087DA3E004F046
:1000700090005EE4F0A3E0D3941750030203C9900C
:100080000061E004F090005FE4F090006275F00120
:10009000121077900060E004F0E0D39407400374FE
:1000A00001F090004BE054026016900064E0B4024E
:1000B0000FE09033989304FF900061E0D39F504B82
:1000C00090004BE05402601E900064E0B40203D341
:1000D0008001C34011900064E090339893FF90003A
:1000E00061E0D39F502590004BE054026003D38021
:1000F00001C3500302029F900064E090339893FF85
:10010000900061E0D39F500302029F900064E004DE
:10011000F09000617401F0900064E0D3940C5003FF
:100120000201F8A3E475F0011210779000647401E5
:10013000F0900062E4F0A304F0900065E0FEA3E01C
:10014000FF7C017D90121022ED4C601B900066E058
:1001500054037017900065E0FEA3E0FF7C007D640F
:10016000121022ED4C60047F0180027F00EFB40189
:100170000990004BE04402F0800790004BE054FDF2
:10018000F0900067E05480648070047F0180027FFB
:1001900000EF6024900065E0FEA3E0FF900049E0DE
:1001A000B5060EA3E0B5070990004CE04480F0804E
:1001B0000790004CE0547FF0900067E06024E0FF7F
:1001C00090004CE05FFF900067E0B507047F01807E
:1001D000027F00EF600C90004BE04408F090004C70
:1001E000E4F090005CE05440644070047F018002C1
:1001F0007F00EF6003123124900067E054406440B8
:1002000070047F0180027F00EF601C900064E0FFBB
:10021000900048E0B5070990004CE04440F08007AA
:1002200090004CE054BFF0900064E0FF90005BE071
:10023000B50709900056E04404F08007900056E0AE
:1002400054FBF0900064E0FF900054E0B507099083
:10025000004FE04404F0800790004FE054FBF09022
:100260000067E06024E0FF90004CE05FFF900067D3
:10027000E0B507047F0180027F00EF600C90004B27
:10028000E04408F090004CE4F090005CE0542064FE
:100290002070047F0180027F00EF60031232219002
:1002A0000067E05408640870047F0180027F00EF5B
:1002B000601C900060E0FF900044E0B507099000EA
:1002C0004CE04408F0800790004CE054F7F09000B8
:1002D00067E05420642070047F0180027F00EF609B
:1002E00024900062E0FEA3E0FF900046E0B5060E19
:1002F000A3E0B5070990004CE04420F0800790008F
:100300004CE054DFF0900067E05410641070047FFC
:100310000180027F00EF601C900061E0FF900045CB
:10032000E0B5070990004CE04410F0800790004CC5
:10033000E054EFF0900061E0FF90005AE0B507094B
:10034000900056E04402F08007900056E054FDF023
:10035000900061E0FF900053E0B5070990004FE086
:100360004402F0800790004FE054FDF0900067E0F9
:100370006024E0FF90004CE05FFF900067E0B5076D
:10038000047F0180027F00EF600C90004BE0440886
:10039000F090004CE4F090005CE0540864087004B5
:1003A0007F0180027F00EF6003122F51900060E018
:1003B000B4011690005CE05410641070047F01805A
:1003C000027F00EF6003122EF590005FE0C3940CF3
:1003D000500990004BE054FBF0800790004BE04444
:1003E00004F090005FE0FF900057E0B5070990002F
:1003F00056E04401F08007900056E054FEF0900073
:100400005FE0FF900050E0B5070990004FE0440125
:10041000F0800790004FE054FEF0900055E054014A
:10042000640170047F0180027F00EF700302080EF8
:1004300090004BE05401640170047F0180027F0052
:10044000EF700302058D900056E0540764077004B6
:100450007F0180027F00EF70030206E990005EE0FA
:10046000FB90004DE0FF7E007C007D3C121022AF2F
:1004700005C3EB9D90005EF0E0D3943B400BE0F4AD
:10048000FF743B9FF0A3E014F090005FE0FB90004E
:100490004DE0FF7E007C007D3C121022C3EB9F905C
:1004A000005FF0E0D39417500302057EE0F4FF7480
:1004B000179FF0E0C3940C500990004BE054FBF000
:1004C000800790004BE04404F0900061E014F0A33A
:1004D00074FFF5F0121077900060E014F0E0700304
:1004E0007407F0900061E0600302057B900064E017
:1004F00014F0E07077740CF0E09033989390006102
:10050000F090006574FFF5F0121077900065E0FE42
:10051000A3E0FF7C017D90121022ED4C601B900047
:1005200066E054037017900065E0FEA3E0FF7C00D6
:100530007D64121022ED4C60047F0180027F00EF89
:10054000B4011390004BE04402F09000627401F09B
:10055000A3746EF0801190004BE054FDF0900062A7
:100560007401F0A3746DF0123124800C900064E0EB
:1005700090339893900061F0123221122F51900025
:100580004BE054FEF0900056E4F00206E990004F74
:10059000E05407640770047F0180027F00EF70035E
:1005A0000206E990004DE0FF7E007C007D3C1210C9
:1005B00022AF0590005EE02DF0E0D3943B4008E0D0
:1005C00024C4F0A3E004F090004DE0FF7E007C0026
:1005D0007D3C12102290005FE02FF0E0D394175082
:1005E000030206A5E024E8F0E0C3940C5009900053
:1005F0004BE054FBF0800790004BE04404F0900087
:1006000061E004F0A3E475F001121077900060E05F
:1006100004F0E0D3940740037401F0900064E0908C
:10062000339893FF900061E0D39F4076900064E0A0
:1006300004F09000617401F0900064E0D3940C40E9
:100640005E7401F0A3E475F001121077900065E08C
:10065000FEA3E0FF7C017D90121022ED4C601B9008
:100660000066E054037017900065E0FEA3E0FF7C95
:10067000007D64121022ED4C60047F0180027F0037
:10068000EFB4010990004BE04402F0800790004B6A
:10069000E054FDF0900062E4F0A304F01231241263
:1006A0003221122F5190004BE04401F090004FE4B2
:1006B000F0900064E0FF90005BE0B5070990005601
:1006C000E04404F08007900056E054FBF090006195
:1006D000E0FF90005AE0B50709900056E04402F0B0
:1006E0008007900056E054FDF0900067E0540864E5
:1006F0000870047F0180027F00EF601C900060E0C2
:10070000FF900044E0B5070990004CE04408F080F9
:100710000790004CE054F7F0900067E0542064200C
:1007200070047F0180027F00EF6024900062E0FE91
:10073000A3E0FF900046E0B5060EA3E0B5070990E0
:10074000004CE04420F0800790004CE054DFF09033
:100750000067E05410641070047F0180027F00EF96
:10076000601C900061E0FF900045E0B50709900033
:100770004CE04410F0800790004CE054EFF0900003
:1007800067E05440644070047F0180027F00EF60A6
:100790001C900064E0FF900048E0B5070990004C11
:1007A000E04440F0800790004CE054BFF0900067B8
:1007B000E05480648070047F0180027F00EF602439
:1007C000900065E0FEA3E0FF900049E0B5060EA3AF
:1007D000E0B5070990004CE04480F0800790004CA1
:1007E000E0547FF0900067E06024E0FF90004CE070
:1007F0005FFF900067E0B507047F0180027F00EF94
:10080000600C90004BE04408F090004CE4F0900045
:1008100067E05404640470047F0180027F00EF608D
:100820001C90005FE0FF900043E0B5070990004C8A
:10083000E04404F0800790004CE054FBF090006727
:10084000E06024E0FF90004CE05FFF900067E0B5BF
:1008500007047F0180027F00EF600C90004BE044B2
:1008600008F090004CE4F090005CE05404640470E4
:10087000047F0180027F00EF600312321190006755
:10088000E05402640270047F0180027F00EF601C6C
:1008900090005EE0FF900042E0B5070990004CE058
:1008A0004402F0800790004CE054FDF0900067E0B7
:1008B0006024E0FF90004CE05FFF900067E0B50728
:1008C000047F0180027F00EF600C90004BE0440841
:1008D000F090004CE4F090005CE05402640270047C
:1008E0007F0180027F00EF6003123201900067E019
:1008F0005401640170047F0180027F00EF601C904E
:10090000005DE0FF900041E0B5070990004CE04435
:1009100001F0800790004CE054FEF0900067E0602A
:1009200024E0FF90004CE05FFF900067E0B5070413
:100930007F0180027F00EF600C90004BE04408F0E4
:1009400090004CE4F090005CE05401640170047F7E
:100950000180027F00EF60031224DED007D006D0B2
:1009600005D004D003D002D001D000D0D0D093D095
:1009700086D084D085D082D083D0F0D0E032E4908D
:100980000062F0A3F0900061E0FFA3E48FF012108A
:1009900077900065E0FEA3E0FF7C017D90121022BD
:1009A000ED4C601B900066E054037017900065E00A
:1009B000FEA3E0FF7C007D64121022ED4C60047FFA
:1009C0000180027F00EFB4010990004BE04402F087
:1009D000800790004BE054FDF0E4FF900064E024B9
:1009E000FFFDE434FFFCEFC39DE49C5012EF903315
:1009F0009993FD900062E48DF01210770F80DC90E7
:100A0000004BE05402640270047F0180027F00EF1B
:100A1000601B900061E0D3941D5008900064E09446
:100A200002400A900062E475F001121077900061B4
:100A3000E0FF900064E0FDA3E0FAA3E0FB12257D57
:100A4000EF04900060F0E0D394014005E014F080E2
:100A50000C900060E0F404FFC374069FF090005512
:100A6000E05402640270047F0180027F00EF6003A3
:100A7000121F3F900054E0FF900064E0D39F4009B4
:100A800090004BE04401F08042900054E0FF900061
:100A900064E06F7036900053E0FF900061E0D39FF8
:100AA000400990004BE04401F08020900053E0FFAB
:100AB000900061E0B50714900050E0FF90005FE007
:100AC000D39F400790004BE04401F090005BE0FFB3
:100AD000900064E0D39F400990004BE054FEF0800A
:100AE0004290005BE0FF900064E06F703690005A27
:100AF000E0FF900061E0D39F400990004BE054FE7E
:100B0000F0802090005AE0FF900061E0B50714905B
:100B10000057E0FF90005FE0D39F400790004BE05C
:100B200054FEF0E490004FF0900056F0900064E026
:100B3000FF90005BE0B50709900056E04404F080A8
:100B400007900056E054FBF0900064E0FF900054E2
:100B5000E0B5070990004FE04404F0800790004F93
:100B6000E054FBF0900061E0FF90005AE0B5070907
:100B7000900056E04402F08007900056E054FDF0EB
:100B8000900061E0FF900053E0B5070990004FE04E
:100B90004402F0800790004FE054FDF090005FE0C9
:100BA000FF900057E0B50709900056E04401F0803F
:100BB00007900056E054FEF090005FE0FF90005078
:100BC000E0B5070990004FE04401F0800790004F26
:100BD000E054FEF0900055E05401640170047F0180
:100BE00080027F00EF7003020E2D90004BE0540155
:100BF000640170047F0180027F00EF7003020D2802
:100C000090004FE05407640770047F0180027F006A
:100C1000EF7003020E2D90005EE0FB90004DE0FFB0
:100C20007E007C007D3C121022AF05C3EB9D90003E
:100C30005EF0E0D3943B400BE0F4FF743B9FF0A3E5
:100C4000E014F090005FE0FB90004DE0FF7E007C40
:100C5000007D3C121022C3EB9F90005FF0E0D39424
:100C6000175003020D19E0F4FF74179FF090006114
:100C7000E014F0A374FFF5F0121077900060E01418
:100C8000F0E070037407F0900061E06003020D195A
:100C9000900064E014F0E07074740CF0E09033980D
:100CA00093900061F090006574FFF5F0121077905A
:100CB0000065E0FEA3E0FF7C017D90121022ED4C68
:100CC000601B900066E054037017900065E0FEA37F
:100CD000E0FF7C007D64121022ED4C60047F0180F7
:100CE000027F00EFB4011390004BE04402F090004B
:100CF000627401F0A3746EF0801F90004BE054FD0D
:100D0000F09000627401F0A3746DF0800C900064A8
:100D1000E090339893900061F090004BE054FEF027
:100D2000E4900056F0020E2D90004FE05407640747
:100D300070047F0180027F00EF7003020E2D90008F
:100D40004DE0FF7E007C007D3C121022AF0590003C
:100D50005EE02DF0E0D3943B4008E024C4F0A3E033
:100D600004F090004DE0FF7E007C007D3C121022DC
:100D700090005FE02FF0E0D394175003020E21E0C3
:100D800024E8F0900061E004F0A3E475F001121093
:100D900077900060E004F0E0D3940740037401F022
:100DA000900064E090339893FF900061E0D39F40FF
:100DB00070900064E004F09000617401F0900064B1
:100DC000E0D3940C405B7401F0A3E475F0011210C1
:100DD00077900065E0FEA3E0FF7C017D9012102279
:100DE000ED4C601B900066E054037017900065E0C6
:100DF000FEA3E0FF7C007D64121022ED4C60047FB6
:100E00000180027F00EFB4010990004BE04402F042
:100E1000800790004BE054FDF0900062E4F0A304E2
:100E2000F090004BE04401F0E490004FF090005F40
:100E3000E0C3940C500990004BE054FBF080079005
:100E4000004BE04404F0900067E05401640170043A
:100E50007F0180027F00EF601C90005DE0FF90004A
:100E600041E0B5070990004CE04401F08007900094
:100E70004CE054FEF0900067E05402640270047F7E
:100E80000180027F00EF601C90005EE0FF90004256
:100E9000E0B5070990004CE04402F0800790004C58
:100EA000E054FDF0900067E05404640470047F0196
:100EB00080027F00EF601C90005FE0FF900043E045
:100EC000B5070990004CE04404F0800790004CE026
:100ED00054FBF0900067E05408640870047F0180C0
:100EE000027F00EF601C900060E0FF900044E0B5DE
:100EF000070990004CE04408F0800790004CE05453
:100F0000F7F0900067E05420642070047F018002B5
:100F10007F00EF6024900062E0FEA3E0FF900046B7
:100F2000E0B5060EA3E0B5070990004CE04420F0C0
:100F3000800790004CE054DFF0900067E0541064AC
:100F40001070047F0180027F00EF601C900061E060
:100F5000FF900045E0B5070990004CE04410F08098
:100F60000790004CE054EFF0900067E0544064407C
:100F700070047F0180027F00EF601C900064E0FF3E
:100F8000900048E0B5070990004CE04440F080072D
:100F900090004CE054BFF0900067E0548064807093
:100FA000047F0180027F00EF6024900065E0FEA3D3
:100FB000E0FF900049E0B5060EA3E0B507099000F8
:100FC0004CE04480F0800790004CE0547FF09000AB
:100FD00067E06022E0FF90004CE05FFF900067E078
:100FE000B507047F0180027F00EF600A90004BE0AC
:100FF0004408F0E4A3F022BB010689828A83E02240
:101000005002E722BBFE02E32289828A83E4932214
:10101000BB010689828A83F0225002F722BBFE01BF
:10102000F322BC000BBE0029EF8DF084FFADF0224F
:10103000E4CCF875F008EF2FFFEE33FEEC33FCEE56
:101040009DEC984005FCEE9DFE0FD5F0E9E4CEFD49
:1010500022EDF8F5F0EE8420D21CFEADF075F0081C
:10106000EF2FFFED33FD4007985006D5F0F222C375
:1010700098FD0FD5F0EA22C5F0F8A3E028F0C5F0FE
:10108000F8E582158270021583E038F022BB010A70
:1010900089828A83E0F5F0A3E022500687F009E711
:1010A0001922BBFE07E3F5F009E3192289828A833E
:1010B000E493F5F074019322EF2BFFEE3AFEED3945
:1010C000FDEC38FC22E88FF0A4CC8BF0A42CFCE9DA
:1010D0008EF0A42CFC8AF0EDA42CFCEA8EF0A4CDBA
:1010E000A8F08BF0A42DCC3825F0FDE98FF0A42CCE
:1010F000CD35F0FCEB8EF0A4FEA9F0EB8FF0A4CF81
:10110000C5F02ECD39FEE43CFCEAA42DCE35F0FD31
:10111000E43CFC2275F008758200EF2FFFEE33FEF1
:10112000CD33CDCC33CCC58233C5829BED9AEC99BF
:10113000E58298400CF582EE9BFEED9AFDEC99FC61
:101140000FD5F0D6E4CEFBE4CDFAE4CCF9A88222A8
:10115000B800C1B90059BA002DEC8BF084CFCECDC8
:10116000FCE5F0CBF97818EF2FFFEE33FEED33FD01
:10117000EC33FCEB33FB10D703994004EB99FB0FE6
:10118000D8E5E4F9FA227818EF2FFFEE33FEED33BD
:10119000FDEC33FCC933C910D7059BE99A4007EC35
:1011A0009BFCE99AF90FD8E0E4C9FAE4CCFB22757C
:1011B000F010EF2FFFEE33FEED33FDCC33CCC83310
:1011C000C810D7079BEC9AE899400AED9BFDEC9A72
:1011D000FCE899F80FD5F0DAE4CDFBE4CCFAE4C8EA
:1011E000F922EF4BFFEE4AFEED49FDEC48FC22E808
:1011F000600FECC313FCED13FDEE13FEEF13FFD8ED
:10120000F122E8600FEFC333FFEE33FEED33FDEC68
:1012100033FCD8F122E0FCA3E0FDA3E0FEA3E0FF55
:1012200022E0F8A3E0F9A3E0FAA3E0FB22ECF0A3AC
:10123000EDF0A3EEF0A3EFF022E0FBA3E0FAA3E0D1
:10124000F922EBF0A3EAF0A3E9F022E493FB7401A6
:1012500093FA740293F922D083D082F8E493701247
:10126000740193700DA3A393F8740193F58288839E
:10127000E4737402936860EFA3A3A380DFE50C25F9
:1012800082F582E50B3583F583B50B0485820C224C
:1012900010AF0685820CF50B2285820CF50BD2AFC0
:1012A00022E50C2582F582E50B3583F58322EC8E51
:1012B000F0A4CCC5F0CCCDF8EFA4CEC5F02DFDE464
:1012C0003CFCE8A42EC8C5F03DFDE43CFCEFA4FFC7
:1012D000E5F028FEE43DFDE43CFC22E709F608DFEA
:1012E000FA8046E709F208DFFA803E88828C83E7BD
:1012F00009F0A3DFFA8032E309F608DFFA806EE333
:1013000009F208DFFA806688828C83E309F0A3DFA4
:10131000FA805A89828A83E0A3F608DFFA804E8930
:10132000828A83E0A3F208DFFA804280D280FA80CA
:10133000C680D4805580F28029801080A680EA8003
:101340009A80A880DA80E280CA802988848C858986
:10135000828A83E493A30586F0A30586DFF5DEF396
:10136000800B89828A83E493A3F608DFF9ECFAA95B
:10137000F0EDFB2288848C8589828A83E0A3058630
:10138000F0A30586DFF6DEF480E389828A83E493A6
:10139000A3F208DFF980D688F0EF60010E4E60CD31
:1013A00088F0ED2402B4040050C3F582EB2402B4AB
:1013B000040050B9232345822390132B73900073AC
:1013C0007410F0900010E06401703F904005E0540C
:1013D000F0FFE4C4F854F0C868EFC4540F4804FFA9
:1013E000FBE4FAF9F8904200E054079033B193FF20
:1013F000E4FCFDFE121150E47B4BFAF9F81210C523
:10140000122C0090400BE04404F090000FE06401C7
:101410007073FF122396904210E0FF900074E4F086
:10142000A37405F0D3900075E09400900074E094EC
:10143000004052904005E054F0FFE4C4F854F0C876
:1014400068EFC4540F4804FFFBE4FAF9F890420037
:10145000E054079033B193FFE4FCFDFE121150E419
:101460007BC8FAF9F81210C5122C00904210E05413
:10147000807006900073F0800C90007474FFF5F09B
:10148000121077809F7F2D122DF4900003E0FF64EF
:10149000026004EFB4031790000BE0FF904004E0FB
:1014A0006F6003123333900003E0FF12324F90005D
:1014B00005E054406012900004E09033B893B40308
:1014C000077F08121D158024900004E09033B89324
:1014D000FF121D15900005E054406009904200E0A5
:1014E0004440F08007904200E054BFF0900007E0D5
:1014F000B4010C9043A0E054107004FF122A5C90D9
:101500000007E0700B9043A0E0541060031232918A
:10151000900008E0FF122E2F90000AE0B4010312A1
:101520003299904000E05430FF900009E0FD6F7068
:1015300001E4600A904000E054CFFFED4FF09000CE
:101540000EE06401703CFF12277A904005E054F0F1
:10155000FFE4C4F854F0C868EFC4540F4804FFFB1C
:10156000E4FAF9F8904200E054079033B193FFE4B5
:10157000FCFDFE121150E47BFAFAF9F81210C512C4
:101580002C00900003E0FF6003B4011790000BE013
:10159000FF904004E06F6003123333900003E0FFDC
:1015A00012324F904007E0FE904006E0FDEEFCED69
:1015B00090000CE0FEA3E0FF6D7002EE6C60031281
:1015C00025FF904800E0543FFF900006E04F904810
:1015D00000F0900001E09043A1F0900002E0904301
:1015E000A2F022E4900068F0A37437F0A3743BF0FB
:1015F000A37416F090006D741FF0900070740CF0DE
:10160000A37407F0A374D7F0D2AF9044F4E054FD74
:10161000F07B017A00796912267E7F051230127FF5
:10162000031230337F011230547F011230757F0175
:101630001230967FD87E07122F257FD71232FD7F7A
:101640007F1233037F011231567F171233097F1F38
:1016500012330F7F0C1233157F0212331B7F0112DE
:1016600033217F011233277F7B12332D1231DB129E
:1016700031EE7D007F001228C17BFF7A3079D412D1
:1016800028571232DF900068EFF07B0B7D001224A8
:101690003C1232E5900068EFF07B087D0012243C9C
:1016A0001232EB900068EFF07B057D0012243C7D48
:1016B000007F011228C17BFF7A3079E2122857128D
:1016C00032F1900068EFF07B007D0112243C123271
:1016D000F7900068EFF07B037D0112243C1232800A
:1016E0007C007D64121022AF05900068EFF07B064D
:1016F0007D0112243C900060E0900068F07D097F3D
:10170000011228C1900068E02430FF12310A122E25
:1017100098900068EFF030E10E7D0B7F011228C138
:101720007F4C12310A800C7D0B7F011228C17F2073
:1017300012310A900068E030E2127D0E7F0012281C
:10174000C17BFF7A3079EA12285780107D0E7F0026
:101750001228C17BFF7A3079ED122857900068E09B
:1017600030E00E7D0D7F011228C17F4412310A80C6
:101770000C7D0D7F011228C17F2012310A90006874
:10178000E030E30E7D0F7F011228C17F4112310A44
:10179000800C7D0F7F011228C17F2012310AE47F67
:1017A00064FEFDFC1229F712194B1232D87D007C21
:1017B00008E4FF121ABF1213BD1232D180E022904A
:1017C0005A00E090001BF0905A02E090001CF0904C
:1017D0005A03E090001DF0905A04E090001EF09033
:1017E0005A06E090001FF0905A08E0900020F09018
:1017F0005A0AE0900021F0905A10E0900022F090F8
:101800005A12E0900023F0905A13E0900024F090D8
:101810005A14E0900025F0905A16E0900026F090BF
:101820005A18E0900027F0905A1AE0900028F090A3
:101830005A20E0900029F0905A22E090002AF0907F
:101840005A23E090002BF0905A24E090002CF09066
:101850005A26E090002DF0905A28E090002EF0904B
:101860005A2AE090002FF0905A30E0900030F0902B
:101870005A32E0900031F0905A33E0900032F0900C
:101880005A34E0900033F0905A36E0900034F090F3
:101890005A38E0900035F0905A3AE0900036F090D7
:1018A0005A00E4F0905A02F0A3F0A3F0905A06F028
:1018B000905A08F0905A0AF0905A10F0905A12F08C
:1018C000A3F0A3F0905A16F0905A18F0905A1AF01C
:1018D000905A20F0905A22F0A3F0A3F0905A26F0EC
:1018E000905A28F0905A2AF0905A30F0905A32F0DC
:1018F000A3F0A3F0905A36F0905A38F0905A3AF08C
:101900009046E8E0540460229000167401F0905074
:101910000BE0540E900017F090500BE054F1440C83
:10192000F09046E8E054FBF08005E4900016F0905B
:101930004322E05408600E9000407401F09043226E
:10194000E054F7F022E4900040F0229043A1E054EC
:101950000F900001F09043A2E0900002F09043A1AC
:10196000E054F0F0A3E0E4F0904800E054C09000B0
:1019700006F07F2D122DF4904200E05407900004F1
:10198000F0904200E05440900005F0904200E05496
:1019900010600890000A7401F08005E490000AF0DD
:1019A0007F04121D159043A0E054106008900007BA
:1019B0007401F08009E4900007F0FF122A5C904265
:1019C00000E05420601A904000E0544070047F0210
:1019D00080027F01900008EFF0E4FF122E2F8005B7
:1019E000E4900008F0904000E05430900009F0E0EE
:1019F0006007904000E054CFF0904200E054106047
:101A0000031232A1904004E090000BF0E06005E486
:101A1000FF123333904005E05403900003F0E06080
:101A200005E4FF12324F904007E0FE904006E0FDD3
:101A3000EEEDFF90000CEEF0A3EFF090000CE070E4
:101A400002A3E06006E4FFFE1225FF904005E0548B
:101A5000F0FFE4C4F854F0C868EFC4540F4804FF22
:101A6000FBE4FAF9F8904200E054079033B193FF99
:101A7000E4FCFDFE121150122DF4904220E05401BE
:101A8000600B90000E7401F01232898005E4900022
:101A90000EF0904210E05401600B90000F7401F0C2
:101AA0001232C98005E490000FF090400BE054041E
:101AB00060079000107401F022E4900010F0229072
:101AC0000073EFF0A3ECF0A3EDF01231B2900076CA
:101AD000EFF0904393E054087009904683E0541F60
:101AE000F08009900076E0FF12316E229046ECE023
:101AF000C394055012904689E0540170028001C3DE
:101B000040057F0012319D122CDB900073E0FFC373
:101B100094024016EFD3940D5010EF14FF122C4B8B
:101B2000900074E04408F0A3E0F0900073E0B4018A
:101B30000D123186900074E04408F0A3E0F0904369
:101B400098E0900018F0900074E0FCA3E0FDECC475
:101B5000F854F0C868EDC4540F48904398F0A3E0DF
:101B6000900019F0ED540F904399F0A3E090001A03
:101B7000F0900074E0C4540190439AF0904200E069
:101B80005407700790003F04F08016E490003FF087
:101B9000904200E0540790003EF0904200E054F87C
:101BA000F0904393E054F84403F0E0FF000000900D
:101BB000003FE064016010904200E054F8FF9000A4
:101BC0003EE04F904200F0122F7A900018E09043D0
:101BD00098F0900019E0904399F090001AE090433B
:101BE0009AF0900076E0FF12316E22904698E090D5
:101BF0000068F09043007402F09040007408F09088
:101C0000430A74F3F09046987403F0904309748487
:101C1000F09043087405F07FA07E867D017C0090E3
:101C2000006912122D900069121215D3EF9400EE84
:101C300094004028904308E0542070207FE07E010B
:101C4000FDFC122C0090006912121574FFFBFAF9CA
:101C5000F81210B890006912122D80C9900068E047
:101C6000904698F09042007401F07B0CFA790912CA
:101C700032689046A1EFF07B007A4279227D107C99
:101C8000011232407B007A4279207D517C10123261
:101C900040E490006DF07F19FEFDFC900069121287
:101CA0002D900069121215D3EF9400EE9400403B82
:101CB00090006DE0FF64036032904225E05401FE25
:101CC000EF25E04E540390006DF0E47FE07E01FDCF
:101CD000FC122C0090006912121574FFFBFAF9F83F
:101CE0001210B890006912122D80B67B007A4079EC
:101CF000047D007C011232409040047407F0904053
:101D000006E4F09040087448F0904004E4F09040FD
:101D1000017402F022900076EFF0904200E0540748
:101D2000900077F0900076E0FFB408067E037F0312
:101D30008000900078EFF0900077E0146018146055
:101D40001D14602214602614602B2405702F90004F
:101D5000777402F0802C9000777401F0802490005A
:101D6000777403F0801CE4900077F0801590007782
:101D70007404F0800D9000777405F080057F0012E8
:101D8000319D900077E0FFA3E0C39F40089000766C
:101D9000E0FF1222E8900076E01212571DB5001DF8
:101DA000C2011DCF021DD8031DE5041DF2051DFF54
:101DB0000800001E0A904200E054F8440354BFF0AB
:101DC000804D904200E054F8440154BFF0804090B0
:101DD0004200E054B8F08037904200E054F84402EA
:101DE00054BFF0802A904200E054F8440454BFF0FD
:101DF000801D904200E054F8440554BFF0801090DC
:101E00004200E054F84442F080057F0012319D907A
:101E10000076E0B4080512329980031232A19000D6
:101E200077E0FFA3E0C39F5008900076E0FF122206
:101E3000E82290001BE0905A00F090001CE0905ABD
:101E400002F090001DE0905A03F090001EE0905ABE
:101E500004F090001FE0905A06F0900020E0905AA5
:101E600008F0900021E0905A0AF0900022E0905A89
:101E700010F0900023E0905A12F0900024E0905A65
:101E800013F0900025E0905A14F0900026E0905A4C
:101E900016F0900027E0905A18F0900028E0905A31
:101EA0001AF0900029E0905A20F090002AE0905A11
:101EB00022F090002BE0905A23F090002CE0905AF2
:101EC00024F090002DE0905A26F090002EE0905AD9
:101ED00028F090002FE0905A2AF0900030E0905ABD
:101EE00030F0900031E0905A32F0900032E0905A99
:101EF00033F0900033E0905A34F0900034E0905A80
:101F000036F0900035E0905A38F0900036E0905A64
:101F10003AF0900016E0B4011790500BE054F1FF36
:101F2000900017E04F90500BF09046E8E04404F02A
:101F3000900040E0B40107904322E04408F0229072
:101F400000737401F0A3F0900054E0FD900065E090
:101F5000FAA3E0FB7F0112257DEF04900075F0E00D
:101F6000FFD394014005E014F0800CEFF404FFC3AC
:101F700074069F900075F0900051E0FF900075E0AE
:101F80006F601B900074E004F0A3E004F0E0D394D1
:101F90000740E47401F0900073E004F080D99000F1
:101FA00052E0FF900073E06F600DA3E02407F09013
:101FB0000073E004F080E7900074E0900053F0902C
:101FC00000737401F0A3F090005BE0FD900065E009
:101FD000FAA3E0FB7F0112257DEF04900075F0E08D
:101FE000FFD394014005E014F0800CEFF404FFC32C
:101FF00074069F900075F0900058E0FF900075E027
:102000006F601B900074E004F0A3E004F0E0D39450
:102010000740E47401F0900073E004F080D9900070
:1020200059E0FF900073E06F600DA3E02407F0908B
:102030000073E004F080E7900074E090005AF02212
:1020400075930078007583467582E8E04401F000DE
:102050009046ECE0F99046FAE0FAB903225420B435
:102060000012B8001AEA901FFFF07401901FFEF0F2
:102070009046F6F0901FFEE06005901FFFE0FA909A
:10208000480074C0F075810C90000078007920E45D
:10209000F0A3D8FCD9FAEA900086F0020011750B83
:1020A0001F750CFD12212A0220E50215E3E493A31B
:1020B000F8E493A34003F68001F208DFF48029E4FA
:1020C00093A3F85407240CC8C333C4540F4420C846
:1020D000834004F456800146F6DFE4800B010204DD
:1020E00008102040809026FCE47E019360BCA3FF92
:1020F000543F30E509541FFEE493A360010ECF5412
:10210000C025E060A840B8E493A3FAE493A3F8E400
:1021100093A3C8C582C8CAC583CAF0A3C8C582C86C
:10212000CAC583CADFE9DEE780BE7B007A4679E86C
:10213000123268EF4405FD7B007A4679E81232746A
:10214000E4F50AE50AC39409502CE50A75F005A4E4
:10215000246CF582E43433AF82F5088F09F58312DD
:10216000124B8F82850883740393FC740493FD12D1
:10217000313D050A80CD7E337F47122EC77B017A21
:10218000507903123268EF4402FD7B017A507903E3
:102190001232747B017A507913123268EF4402FDD7
:1021A0007B017A5079131232749043A0E04440F0DE
:1021B0009043C2E04410F07C337D3F7B007A51793C
:1021C000227F087E00122FC99044F47401F09043DE
:1021D00022E04408F09046ECE0C394055006904697
:1021E00089743AF090480074C0F0121BEB1230B7BB
:1021F0007B007A4379A0C00179B090006D12124241
:10220000D0017F0E7E00122E649043B0E054FDF0AA
:102210002290FFFF12127D905120E05480F09051E7
:1022200022E054F0850B83850C82F0E0440F90513E
:1022300022F0A3E054F0850B83850C82F0E09051EE
:1022400023F0A3E054F0850B83850C82F0E09051DD
:1022500024F0905120E054DFF0E04440F0E4FFFE31
:10226000122EF8905120E04410F07F017E00122ED3
:10227000F8905121E0850B83850C82F0905120E08D
:1022800054EFF0850B83850C82E05408F0905120C8
:10229000E04410F07F017E00122EF8905120E054AF
:1022A000EFF0850B83850C82E070B2905120E054F2
:1022B000BFF0E05480F0905122E054F0F0A3E054DD
:1022C000F0850B83850C82F0E0440F905123F0A33E
:1022D000E054F0850B83850C82F0E0440F9051248C
:1022E000F090000112127D22AE07122FA290007909
:1022F000EFF0B40107906009E054FDF0EE121257C0
:1023000023190023280123370223460323550423DE
:102310006405237308000023907B0C7A017908126E
:1023200032689046A1EFF0227B0C7A0179091232D3
:10233000689046A1EFF0227B0C7A01790A1232688C
:102340009046A1EFF0227B0C7A01790B1232689053
:1023500046A1EFF0227B0C7A01798912326890460F
:10236000A1EFF0227B0C7A01790C1232689046A121
:10237000EFF0227B0C7A01790F1232689046A1EFC0
:10238000F0900079E0B4010D906009E04402F02281
:102390007F0012319D22E4900076F0A3EFF090428E
:1023A00010E04401F0EFD394005003022436904330
:1023B00000E0900079F0904380E090007AF0904344
:1023C00082E090007BF07F18122B749000767410DE
:1023D000F0900077E0D394004041904210E0FF90ED
:1023E00000787404F0900078E0D3940040177F01E7
:1023F000122ABBEFB40103D38001C350F1900078DF
:10240000E014F080E0904210E05480700690007676
:10241000F08008900077E014F080B6900079E054E6
:102420000470031232B990007AE0904380F090007B
:102430007BE0904382F0900076E0FF2290FFFF1255
:10244000127DEBF090FFFF12127DEDF090FFFF1276
:10245000127DEFF090FFFE12127D850B83850C82BA
:10246000E4F0A3F09000041212A1E004FD90000338
:102470001212A1E0FF1228C1850B83850C82A3A351
:10248000E0FF7E007C007D0A121022850B83850C04
:1024900082EDF0E02430FF12310A850B83850C8237
:1024A000A3A3E0FF7E007C007D0A121022850B832F
:1024B000850C82A3EFF09000041212A1E0FD9000C1
:1024C000031212A1E0FF1228C1850B83850C82A3A1
:1024D000E02430FF12310A90000512127D221232E0
:1024E000DF900092EFF07B0B7D0012243C122E98BF
:1024F000900092EFF030E30E7D0F7F011228C17F34
:102500004112310A800C7D0F7F011228C17F2012F9
:10251000310A900092E030E00E7D0D7F011228C15B
:102520007F4412310A800C7D0D7F011228C17F206B
:1025300012310A900092E030E2127D0E7F001228E4
:10254000C17BFF7A33793912285780107D0E7F00C6
:102550001228C17BFF7A33793C122857900092E011
:1025600030E10D7D0B7F011228C17F4C12310A2210
:102570007D0B7F011228C17F2012310A2290007644
:10258000EFF0900078EAF0A3EBF0900077EDF0C365
:1025900094035008A374FFF5F0121077900078E0D0
:1025A000FCA3E0FDAE047802CEC313CE13D8F92D00
:1025B000FBEC3EFA900078E0FEA3E0FF7C007D6437
:1025C000121022C3EB9FFBEA9EFA900078E0FEA374
:1025D000E0FF7C017D90121022EF2BFFEE3AFE907F
:1025E0000077E09033A4937C002FFFEC3EFE900038
:1025F00076E02FFFEC3EFE7D07121022AF05229001
:102600000076EEF0A3EFF01231B2AD07904007E094
:10261000FE904006E0FBEEEBFF900076E07002A338
:10262000E06004EF4E7046904004E0FCC394075015
:10263000057F07123333900076E07002A3E0701438
:10264000904008E04440F0900076E0FEA3E0FF12E6
:102650002FEF8012900076E0FEA3E0FF122FEF90A4
:102660004008E054BFF0AF04123333800B90007683
:10267000E0FEA3E0FF122FEFAF0512316E229000B3
:10268000731212421232D8900073121239120FF7DD
:1026900090005DF0E92401F9E43AFA120FF7900096
:1026A0005EF0900073121239E92402F9E43AFA124A
:1026B0000FF790005FF0900073121239E92404F9CB
:1026C000E43AFA120FF7900061F090007312123999
:1026D000E92407F9E43AFA120FF7900064F0900049
:1026E00073121239E92408F9E43AFA12108DFF90B6
:1026F0000065E5F0F0A3EFF01232D12241004E0068
:102700004A005D0000000101000101076C4A004120
:102710000000000101000101076C41005500450067
:102720005000010101014500570001010101410074
:102730004D0041004F00410056004100670041003C
:102740004C0041005C0041004B0041009100410001
:10275000900044008202DC6C0044007D0000BB80DD
:10276000410081304400875DC00000410092004379
:10277000008B0000004100930000E4900076F09090
:102780004220E04401F0EF605A904300E09000776F
:10279000F0904380E0900078F0904382E0900079E0
:1027A000F07F18122B749000767410F07F01122ABB
:1027B000BBEF64016012904225E0540160EEE054EA
:1027C0000160E9E4900076F0900077E05404700333
:1027D0001232B9900078E0904380F0900079E09058
:1027E0004382F0900076E0FF22E47F28FEFDFC1299
:1027F00029F77F03122BC1E47F05FEFDFC1229F7A8
:102800007F03122BC1E47F0FFEFDFC1229F77F032B
:10281000122BC1E47F01FEFDFC1229F77F02122B6F
:10282000C1E47F05FEFDFC1229F77F06122D687FAB
:102830000E122D687F2C122D687F08122D687F01E3
:10284000122D687F0C122D687F03122D68E47F051E
:10285000FEFDFC1229F72290FFFD12127D1212429A
:1028600090FFFE12127D850B83850C827401F0A30C
:10287000A3121239120FF7850B83850C82A3F08502
:102880000B83850C82A3E0FF6030122D22850B8321
:10289000850C82A3A3121239850B83850C82E02953
:1028A000F9E43AFA120FF7850B83850C82A3F085C1
:1028B0000B83850C82E004F080C590000512127D28
:1028C0002290FFFF12127DEDF090FFFF12127DEFBC
:1028D000F0850B83850C82E014601A146027146065
:1028E000342403703E850B83850C82A3E02480FF93
:1028F000122D68802E850B83850C82A3E024C0FFF7
:10290000122D68801E850B83850C82A3E02494FF22
:10291000122D68800E850B83850C82A3E024D4FFE2
:10292000122D6890000212127D22900074ECF0A328
:10293000EDF0900073EFF0D3941F50028001C3407C
:10294000057F0012319D900073E0541F25E0FFE4E5
:1029500033FEE42FFFEE3444FAA9077B0112323331
:10296000900076EEF0A3EFF0900073E075F002A413
:102970002400FFE5F03444FAA9077B01A3E0FEA39D
:10298000E0FFFDAC06123242900076E0FEA3E0FFCD
:1029900022904308E0540260047E0180027E009091
:1029A0000079EEF090430A74F3F0EF640170259023
:1029B000469804F07F0A7E00122EF8904309E054F6
:1029C000F34408F07F147E00122EF8904308E04490
:1029D00002F0801D9046987406F07F0A7E00122E49
:1029E000F8904309E054F34404F0904308E054FDA8
:1029F000F0900079E0FF2290FFFC12127D12122D60
:102A0000850B83850C82121215D3EF9400EE94800F
:102A1000402E900087121215122C00850B83850C16
:102A200082C083C082121215E42FFFEE3480FEEDC7
:102A300034FFFDEC34FFFCD082D08312122D80C015
:102A400090007D121215850B83850C8212122112C3
:102A500010C5122C0090000412127D229043A0E0B9
:102A60004410F0EF6054904300E0900078F0E054A0
:102A70000470031232B1904382E0900076F09043EC
:102A800080E0900077F0904382E054FCF090438027
:102A9000E4F090438204F07F01122ABBEF60F890CB
:102AA0000078E0540470031232B9900077E090434C
:102AB00080F0900076E0904382F02290FFFF1212A7
:102AC0007DEFF090FFFE12127D1231B2850B8385EF
:102AD0000C82EFF0900000E0FF904390E0FEEF4E9C
:102AE000900000F0E0FF850B83850C82A3F0850B3E
:102AF00083850C82A3A3E0F4FEEF5E900000F085D6
:102B00000B83850C82E0FF12316E850B83850C826E
:102B1000A3E0FF90000312127D2290430A74F3F0A9
:102B20009046987403F0904309E054F34404F09005
:102B30004308E04404F0E04401F09000777403F0AF
:102B4000A374E8F0D3900078E09400900077E094CC
:102B50000040201232C1EF30E506E4FF1229912235
:102B60007F017E00122EF890007774FFF5F01210AE
:102B70007780D12290007CEFF0904382E054FDF00A
:102B80001232B1904382E05401602090007CE0FF5B
:102B9000904380E06F6029904382E054FEF09043C0
:102BA00080EFF0904382E04401F02290007CE0FF4F
:102BB000904380E06F6002EFF0904382E04401F0C8
:102BC0002290FFFF12127DEFF0905120E0549FF011
:102BD000E054F0F0C083C082E0FF850B83850C8257
:102BE000E04410FEEF4ED082D083F07F017E0012D1
:102BF0002EF8905120E054EFF090000112127D2247
:102C0000EC4D4E700D78FCEF24E950032840FD2276
:102C1000000078C5904800E0C403035403902C479B
:102C20009325E0240FF404FBEF28FF78FFEE38FE35
:102C3000ED38FDEC38FC50D7EF2BFFEE38FEED38C9
:102C4000FDEC38FC40F22205020304900077EFF01F
:102C5000904382E054F7F01232A9904382E054048A
:102C6000601C900077E0FF904381E06F6025A3E057
:102C700054FBF0904381EFF0A3E04404F022900075
:102C800077E0FF904381E06F6002EFF0904382E0D5
:102C90004404F022900073EFF0A3EDF0D3940750BA
:102CA000028001C340057F0012319D900073E0D384
:102CB000941F50028001C340057F0012319D900097
:102CC00074E0540775F020A4FF900073E0541F24B3
:102CD00080F582E43444F583EFF022904689E09059
:102CE0000015F09046F5E0540760249046ECE0C3F0
:102CF00094055012904689743BF09043317401F072
:102D0000E04402F08018904689E04401F0800F9082
:102D100046ECE0C394055006904689743AF01217C9
:102D2000BF2290FFFF12127DEFF090FFFF12127D85
:102D3000122211850B83850C82A3E0FFC4540F85FA
:102D40000B83850C82F0E0FF122DAE850B83850C82
:102D500082A3E0540F850B83850C82F0E0FF122DD7
:102D6000AE90000212127D2290FFFF12127DEFF052
:102D700090FFFF12127D122211850B83850C82A316
:102D8000E0FFC4540F850B83850C82F0E0FF122B0B
:102D9000C1850B83850C82A3E0540F850B83850CC2
:102DA00082F0E0FF122BC190000212127D2290FFF0
:102DB000FF12127DEFF0122211905120E04420F01A
:102DC000E054BFF0E054F0F0C083C082E0FF850B18
:102DD00083850C82E04410FEEF4ED082D083F07FDA
:102DE000017E00122EF8905120E054EFF090000187
:102DF00012127D22900076EFF01231B2900076E050
:102E0000FED39416500B904800E0543F4440F080AD
:102E10001AEED3942C500B904800E0543F4480F0BD
:102E20008009904800E0543F44C0F012316E22EF18
:102E30006024146012147026904000E054BFF0909B
:102E40004200E04420F022904000E04440F09042F4
:102E500000E04420F022904200E054DFF0227F00A6
:102E600012319D22758600EF4E6027EF60010E75CE
:102E7000930090006DE0F595A3E0F585A3E0F5845F
:102E80008B938A838982E0A30586F0A31586DFF6FB
:102E9000DEF4E4F593F5952290FFFF12127D850B89
:102EA00083850C82E4F090004BE0850B83850C82D7
:102EB000F090004BE054F7F0850B83850C82E0FF27
:102EC00090000112127D22ACEAADA08E838F82E4C5
:102ED00093F9601CA3E493F5EAA3E493F5A0A3E4BB
:102EE0009360F1FAA3E493F8A3E493F2DAF6D9E459
:062EF0008DA08CEA2222F5
:102EF800EEFA900081E0F88FF0A4FFAEF0E88AF0D7
:102F0800A42EFEE5F03400FDEF24C9FF78FFEE386B
:102F1800FEED38FDE438FC5003022C0022900049F5
:102F2800EEF0A3EFF0900065E0FEA3E0FF9000490B
:102F3800E0B5060DA3E0B5070890004CE04480F02A
:102F48002290004CE0547FF0221232F1900092EF70
:102F5800F07B007D0112243C900060E0900092F02C
:102F68007D097F011228C1900092E02430FF1231C0
:102F78000A22900015E0904689F09046ECE0C39450
:102F88000550139046F5E05407600B904331E05428
:102F9800FDF0E054FEF0121E3222E4FF904393E06D
:102FA800540770089043A5E054017012904393E0D1
:102FB80054076401700A9043B5E0540160027F0130
:102FC80022758600EF4E601BEF60010E8C838D82A8
:102FD8008B958A858984E493A30586F0A31586DFFB
:102FE800F5DEF3E4F59522904014E054F0F09040BB
:102FF80010E4F0904008E04480F0904002EFF0EEDA
:10300800A3F0904001E04401F022900041EFF090DD
:10301800005DE0FF900041E0B5070890004CE044F7
:1030280001F02290004CE054FEF022900042EFF0B4
:1030380090005EE0FF900042E0B5070890004CE089
:103048004402F02290004CE054FDF022900043EF3F
:10305800F090005FE0FF900043E0B5070890004C57
:10306800E04404F02290004CE054FBF0229000452C
:10307800EFF0900061E0FF900045E0B50708900090
:103088004CE04410F02290004CE054EFF022900005
:1030980048EFF0900064E0FF900048E0B507089022
:1030A800004CE04440F02290004CE054BFF0227BFA
:1030B8000C7A0179CF123268EF540790586EF0EF0E
:1030C800C4540FA3F09058767444F022525443200D
:1030D8002020203A20203A20200020202D20202DBA
:1030E8002000504D00414D0012097E9044C87401E3
:1030F800F07C007D1AE4FF12292A7D07E4FF122CD8
:10310800942290FFFF12127DEFF0850B83850C82CD
:10311800E0FF122D2290000112127D221232807CD3
:10312800007D64121022AF05900092EFF07B067DBF
:103138000112243C22EC4D6011ED60010C8B938A46
:10314800838982E4F0A3DDFCDCFA75930022900009
:1031580055EFF05402640270047F0180027F00EF93
:103168006003121F3F22EF54016004D2AF8002C2F5
:10317800AFEF5402FF9044F4E054FD4FF022904327
:1031880008E054017003122B1A904382E054DFF0D8
:10319800E04410F02290FFFF12127DEFF09046EA13
:1031A8007401F090000112127D229044F4E0F8447A
:1031B80002F0E85402FF10AF012274014FFF2212FF
:1031C80031B2904382E04430F012316E9044C074C2
:1031D80001F02290004EE070091230F090004E7419
:1031E80001F01231C722900090E070091227E9908F
:1031F80000907401F012325C221232E5900092EFD6
:10320800F07B087D0012243C221232EB900092EFF2
:10321800F07B057D0012243C221232F7900092EFD9
:10322800F07B037D0112243C228B938A838982E000
:10323800FFA3E0FE759300228B938A838982EDF0C9
:10324800A3ECF075930022EF5403FF904005E0547F
:10325800FC4FF0227F0C122D689000917401F0222F
:103268008B938A838982E0759300FF228B938A83EC
:103278008982EDF075930022900065E0FEA3E0FFDF
:1032880022904220E054FEF0229043A0E054EFF058
:1032980022904200E04410F022904200E054EFF007
:1032A80022904300E04402F022904300E04404F0FE
:1032B80022904300E054FBF022904308E05420FFA2
:1032C80022904210E054FEF0229044C07401F02293
:1032D8009044C87401F02290005DE0FF2290005EE7
:1032E800E0FF2290005FE0FF22900061E0FF229063
:1032F8000064E0FF22900067EFF02290005CEFF09E
:1033080022900050EFF022900053EFF022900054EA
:10331800EFF022900057EFF02290005AEFF0229041
:10332800005BEFF02290004DEFF022904004EFF0A8
:1033380022504D00414D00007F7F00000000000634
:103348000140023380CC10014101A780014201A74E
:10335800800143032F04A780CA20014801AF8401DC
:10336800510100020051000020005130004000517E
:10337800C000100051F000100100001000011400FE
:1033880008000140000A00014C0002000150000042
:10339800201F1C1F1E1F1E1F1F1E1F1E1F00030293
:1033A8000500030501040602040C061803303E4A12
:0733B80002010300040506F9
:00000001FF
