:40000000022138008F828E83E0540100000070F82278FFE4F6D8FD022196C0E0C0F0C083C082C085C084C086758600C093759300C0D075D000C000C001C002C003C004C04C
:4000400005C006C0077F04122ACC90005DE004F0E0D3943B50030208ECA3E004F090005DE4F0A3E0D3943B500302087DA3E004F090005EE4F0A3E0D3941750030203C990B5
:400080000061E004F090005FE4F090006275F001121077900060E004F0E0D3940740037401F090004BE054026016900064E0B4020FE09033E09304FF900061E0D39F504B86
:4000C00090004BE05402601E900064E0B40203D38001C34011900064E09033E093FF900061E0D39F502590004BE054026003D38001C3500302029F900064E09033E093FF31
:40010000900061E0D39F500302029F900064E004F09000617401F0900064E0D3940C50030201F8A3E475F0011210779000647401F0900062E4F0A304F0900065E0FEA3E041
:40014000FF7C017D90121022ED4C601B900066E054037017900065E0FEA3E0FF7C007D64121022ED4C60047F0180027F00EFB4010990004BE04402F0800790004BE054FD05
:40018000F0900067E05480648070047F0180027F00EF6024900065E0FEA3E0FF900049E0B5060EA3E0B5070990004CE04480F0800790004CE0547FF0900067E06024E0FF89
:4001C00090004CE05FFF900067E0B507047F0180027F00EF600C90004BE04408F090004CE4F090005CE05440644070047F0180027F00EF6003123134900067E054406440FA
:4002000070047F0180027F00EF601C900064E0FF900048E0B5070990004CE04440F0800790004CE054BFF0900064E0FF90005BE0B50709900056E04404F08007900056E0EA
:4002400054FBF0900064E0FF900054E0B5070990004FE04404F0800790004FE054FBF0900067E06024E0FF90004CE05FFF900067E0B507047F0180027F00EF600C90004BC5
:40028000E04408F090004CE4F090005CE05420642070047F0180027F00EF6003123231900067E05408640870047F0180027F00EF601C900060E0FF900044E0B5070990001B
:4002C0004CE04408F0800790004CE054F7F0900067E05420642070047F0180027F00EF6024900062E0FEA3E0FF900046E0B5060EA3E0B5070990004CE04420F080079000A1
:400300004CE054DFF0900067E05410641070047F0180027F00EF601C900061E0FF900045E0B5070990004CE04410F0800790004CE054EFF0900061E0FF90005AE0B5070940
:40034000900056E04402F08007900056E054FDF0900061E0FF900053E0B5070990004FE04402F0800790004FE054FDF0900067E06024E0FF90004CE05FFF900067E0B50738
:40038000047F0180027F00EF600C90004BE04408F090004CE4F090005CE05408640870047F0180027F00EF6003122F61900060E0B4011690005CE05410641070047F018086
:4003C000027F00EF6003122F0690005FE0C3940C500990004BE054FBF0800790004BE04404F090005FE0FF900057E0B50709900056E04401F08007900056E054FEF0900070
:400400005FE0FF900050E0B5070990004FE04401F0800790004FE054FEF0900055E05401640170047F0180027F00EF700302080E90004BE05401640170047F0180027F0025
:40044000EF700302058D900056E05407640770047F0180027F00EF70030206E990005EE0FB90004DE0FF7E007C007D3C121022AF05C3EB9D90005EF0E0D3943B400BE0F4B8
:40048000FF743B9FF0A3E014F090005FE0FB90004DE0FF7E007C007D3C121022C3EB9F90005FF0E0D39417500302057EE0F4FF74179FF0E0C3940C500990004BE054FBF016
:4004C000800790004BE04404F0900061E014F0A374FFF5F0121077900060E014F0E070037407F0900061E0600302057B900064E014F0E07077740CF0E09033E093900061BB
:40050000F090006574FFF5F0121077900065E0FEA3E0FF7C017D90121022ED4C601B900066E054037017900065E0FEA3E0FF7C007D64121022ED4C60047F0180027F00EF57
:40054000B4011390004BE04402F09000627401F0A3746EF0801190004BE054FDF09000627401F0A3746DF0123134800C900064E09033E093900061F0123231122F61900009
:400580004BE054FEF0900056E4F00206E990004FE05407640770047F0180027F00EF70030206E990004DE0FF7E007C007D3C121022AF0590005EE02DF0E0D3943B4008E05A
:4005C00024C4F0A3E004F090004DE0FF7E007C007D3C12102290005FE02FF0E0D3941750030206A5E024E8F0E0C3940C500990004BE054FBF0800790004BE04404F0900031
:4006000061E004F0A3E475F001121077900060E004F0E0D3940740037401F0900064E09033E093FF900061E0D39F4076900064E004F09000617401F0900064E0D3940C409E
:400640005E7401F0A3E475F001121077900065E0FEA3E0FF7C017D90121022ED4C601B900066E054037017900065E0FEA3E0FF7C007D64121022ED4C60047F0180027F0092
:40068000EFB4010990004BE04402F0800790004BE054FDF0900062E4F0A304F0123134123231122F6190004BE04401F090004FE4F0900064E0FF90005BE0B5070990005642
:4006C000E04404F08007900056E054FBF0900061E0FF90005AE0B50709900056E04402F08007900056E054FDF0900067E05408640870047F0180027F00EF601C900060E09E
:40070000FF900044E0B5070990004CE04408F0800790004CE054F7F0900067E05420642070047F0180027F00EF6024900062E0FEA3E0FF900046E0B5060EA3E0B5070990EB
:40074000004CE04420F0800790004CE054DFF0900067E05410641070047F0180027F00EF601C900061E0FF900045E0B5070990004CE04410F0800790004CE054EFF0900034
:4007800067E05440644070047F0180027F00EF601C900064E0FF900048E0B5070990004CE04440F0800790004CE054BFF0900067E05480648070047F0180027F00EF60249D
:4007C000900065E0FEA3E0FF900049E0B5060EA3E0B5070990004CE04480F0800790004CE0547FF0900067E06024E0FF90004CE05FFF900067E0B507047F0180027F00EF09
:40080000600C90004BE04408F090004CE4F0900067E05404640470047F0180027F00EF601C90005FE0FF900043E0B5070990004CE04404F0800790004CE054FBF0900067FB
:40084000E06024E0FF90004CE05FFF900067E0B507047F0180027F00EF600C90004BE04408F090004CE4F090005CE05404640470047F0180027F00EF6003123221900067D2
:40088000E05402640270047F0180027F00EF601C90005EE0FF900042E0B5070990004CE04402F0800790004CE054FDF0900067E06024E0FF90004CE05FFF900067E0B5079B
:4008C000047F0180027F00EF600C90004BE04408F090004CE4F090005CE05402640270047F0180027F00EF6003123211900067E05401640170047F0180027F00EF601C90CC
:40090000005DE0FF900041E0B5070990004CE04401F0800790004CE054FEF0900067E06024E0FF90004CE05FFF900067E0B507047F0180027F00EF600C90004BE04408F0D1
:4009400090004CE4F090005CE05401640170047F0180027F00EF60031224EFD007D006D005D004D003D002D001D000D0D0D093D086D084D085D082D083D0F0D0E032E4907C
:400980000062F0A3F0900061E0FFA3E48FF0121077900065E0FEA3E0FF7C017D90121022ED4C601B900066E054037017900065E0FEA3E0FF7C007D64121022ED4C60047F46
:4009C0000180027F00EFB4010990004BE04402F0800790004BE054FDF0E4FF900064E024FFFDE434FFFCEFC39DE49C5012EF9033E193FD900062E48DF01210770F80DC90AF
:400A0000004BE05402640270047F0180027F00EF601B900061E0D3941D5008900064E09402400A900062E475F001121077900061E0FF900064E0FDA3E0FAA3E0FB12258ED9
:400A4000EF04900060F0E0D394014005E014F0800C900060E0F404FFC374069FF0900055E05402640270047F0180027F00EF6003121F3F900054E0FF900064E0D39F400989
:400A800090004BE04401F08042900054E0FF900064E06F7036900053E0FF900061E0D39F400990004BE04401F08020900053E0FF900061E0B50714900050E0FF90005FE009
:400AC000D39F400790004BE04401F090005BE0FF900064E0D39F400990004BE054FEF0804290005BE0FF900064E06F703690005AE0FF900061E0D39F400990004BE054FE20
:400B0000F0802090005AE0FF900061E0B50714900057E0FF90005FE0D39F400790004BE054FEF0E490004FF0900056F0900064E0FF90005BE0B50709900056E04404F08006
:400B400007900056E054FBF0900064E0FF900054E0B5070990004FE04404F0800790004FE054FBF0900061E0FF90005AE0B50709900056E04402F08007900056E054FDF0A8
:400B8000900061E0FF900053E0B5070990004FE04402F0800790004FE054FDF090005FE0FF900057E0B50709900056E04401F08007900056E054FEF090005FE0FF900050CF
:400BC000E0B5070990004FE04401F0800790004FE054FEF0900055E05401640170047F0180027F00EF7003020E2D90004BE05401640170047F0180027F00EF7003020D28BE
:400C000090004FE05407640770047F0180027F00EF7003020E2D90005EE0FB90004DE0FF7E007C007D3C121022AF05C3EB9D90005EF0E0D3943B400BE0F4FF743B9FF0A3C1
:400C4000E014F090005FE0FB90004DE0FF7E007C007D3C121022C3EB9F90005FF0E0D394175003020D19E0F4FF74179FF0900061E014F0A374FFF5F0121077900060E014D4
:400C8000F0E070037407F0900061E06003020D19900064E014F0E07074740CF0E09033E093900061F090006574FFF5F0121077900065E0FEA3E0FF7C017D90121022ED4CE5
:400CC000601B900066E054037017900065E0FEA3E0FF7C007D64121022ED4C60047F0180027F00EFB4011390004BE04402F09000627401F0A3746EF0801F90004BE054FD92
:400D0000F09000627401F0A3746DF0800C900064E09033E093900061F090004BE054FEF0E4900056F0020E2D90004FE05407640770047F0180027F00EF7003020E2D9000E4
:400D40004DE0FF7E007C007D3C121022AF0590005EE02DF0E0D3943B4008E024C4F0A3E004F090004DE0FF7E007C007D3C12102290005FE02FF0E0D394175003020E21E055
:400D800024E8F0900061E004F0A3E475F001121077900060E004F0E0D3940740037401F0900064E09033E093FF900061E0D39F4070900064E004F09000617401F090006424
:400DC000E0D3940C405B7401F0A3E475F001121077900065E0FEA3E0FF7C017D90121022ED4C601B900066E054037017900065E0FEA3E0FF7C007D64121022ED4C60047F7D
:400E00000180027F00EFB4010990004BE04402F0800790004BE054FDF0900062E4F0A304F090004BE04401F0E490004FF090005FE0C3940C500990004BE054FBF0800790F3
:400E4000004BE04404F0900067E05401640170047F0180027F00EF601C90005DE0FF900041E0B5070990004CE04401F0800790004CE054FEF0900067E05402640270047FE0
:400E80000180027F00EF601C90005EE0FF900042E0B5070990004CE04402F0800790004CE054FDF0900067E05404640470047F0180027F00EF601C90005FE0FF900043E093
:400EC000B5070990004CE04404F0800790004CE054FBF0900067E05408640870047F0180027F00EF601C900060E0FF900044E0B5070990004CE04408F0800790004CE054E1
:400F0000F7F0900067E05420642070047F0180027F00EF6024900062E0FEA3E0FF900046E0B5060EA3E0B5070990004CE04420F0800790004CE054DFF0900067E054106465
:400F40001070047F0180027F00EF601C900061E0FF900045E0B5070990004CE04410F0800790004CE054EFF0900067E05440644070047F0180027F00EF601C900064E0FFFF
:400F8000900048E0B5070990004CE04440F0800790004CE054BFF0900067E05480648070047F0180027F00EF6024900065E0FEA3E0FF900049E0B5060EA3E0B50709900098
:400FC0004CE04480F0800790004CE0547FF0900067E06022E0FF90004CE05FFF900067E0B507047F0180027F00EF600A90004BE04408F0E4A3F022BB010689828A83E022DC
:401000005002E722BBFE02E32289828A83E49322BB010689828A83F0225002F722BBFE01F322BC000BBE0029EF8DF084FFADF022E4CCF875F008EF2FFFEE33FEEC33FCEE08
:401040009DEC984005FCEE9DFE0FD5F0E9E4CEFD22EDF8F5F0EE8420D21CFEADF075F008EF2FFFED33FD4007985006D5F0F222C398FD0FD5F0EA22C5F0F8A3E028F0C5F028
:40108000F8E582158270021583E038F022BB010A89828A83E0F5F0A3E022500687F009E71922BBFE07E3F5F009E3192289828A83E493F5F074019322EF2BFFEE3AFEED3914
:4010C000FDEC38FC22E88FF0A4CC8BF0A42CFCE98EF0A42CFC8AF0EDA42CFCEA8EF0A4CDA8F08BF0A42DCC3825F0FDE98FF0A42CCD35F0FCEB8EF0A4FEA9F0EB8FF0A4CFB3
:40110000C5F02ECD39FEE43CFCEAA42DCE35F0FDE43CFC2275F008758200EF2FFFEE33FECD33CDCC33CCC58233C5829BED9AEC99E58298400CF582EE9BFEED9AFDEC99FCD5
:401140000FD5F0D6E4CEFBE4CDFAE4CCF9A88222B800C1B90059BA002DEC8BF084CFCECDFCE5F0CBF97818EF2FFFEE33FEED33FDEC33FCEB33FB10D703994004EB99FB0FAA
:40118000D8E5E4F9FA227818EF2FFFEE33FEED33FDEC33FCC933C910D7059BE99A4007EC9BFCE99AF90FD8E0E4C9FAE4CCFB2275F010EF2FFFEE33FEED33FDCC33CCC83391
:4011C000C810D7079BEC9AE899400AED9BFDEC9AFCE899F80FD5F0DAE4CDFBE4CCFAE4C8F922EF4BFFEE4AFEED49FDEC48FC22E8600FECC313FCED13FDEE13FEEF13FFD824
:40120000F122E8600FEFC333FFEE33FEED33FDEC33FCD8F122E0FCA3E0FDA3E0FEA3E0FF22E0F8A3E0F9A3E0FAA3E0FB22ECF0A3EDF0A3EEF0A3EFF022E0FBA3E0FAA3E0D0
:40124000F922EBF0A3EAF0A3E9F022E493FB740193FA740293F922D083D082F8E4937012740193700DA3A393F8740193F5828883E4737402936860EFA3A3A380DFE50C25DA
:4012800082F582E50B3583F583B50B0485820C2210AF0685820CF50B2285820CF50BD2AF22E50C2582F582E50B3583F58322EC8EF0A4CCC5F0CCCDF8EFA4CEC5F02DFDE4D7
:4012C0003CFCE8A42EC8C5F03DFDE43CFCEFA4FFE5F028FEE43DFDE43CFC22E709F608DFFA8046E709F208DFFA803E88828C83E709F0A3DFFA8032E309F608DFFA806EE377
:4013000009F208DFFA806688828C83E309F0A3DFFA805A89828A83E0A3F608DFFA804E89828A83E0A3F208DFFA804280D280FA80C680D4805580F28029801080A680EA803A
:401340009A80A880DA80E280CA802988848C8589828A83E493A30586F0A30586DFF5DEF3800B89828A83E493A3F608DFF9ECFAA9F0EDFB2288848C8589828A83E0A3058600
:40138000F0A30586DFF6DEF480E389828A83E493A3F208DFF980D688F0EF60010E4E60CD88F0ED2402B4040050C3F582EB2402B4040050B9232345822390132B7390007347
:4013C0007410F0900010E06401703F904005E054F0FFE4C4F854F0C868EFC4540F4804FFFBE4FAF9F8904200E054079033F993FFE4FCFDFE121150E47B4BFAF9F81210C589
:40140000122C0090400BE04404F090000FE064017073FF1223A7904210E0FF900074E4F0A37405F0D3900075E09400900074E094004052904005E054F0FFE4C4F854F0C83A
:4014400068EFC4540F4804FFFBE4FAF9F8904200E054079033F993FFE4FCFDFE121150E47BC8FAF9F81210C5122C00904210E054807006900073F0800C90007474FFF5F012
:40148000121077809F7F2D122E33900003E0FF64026004EFB4031790000BE0FF904004E06F6003123343900003E0FF12325F900005E054406012900004E090340093B403C2
:4014C000077F08121D158024900004E090340093FF121D15900005E054406009904200E04440F08007904200E054BFF0900007E0B4010C9043A0E054107004FF122A6D90F9
:401500000007E0700B9043A0E0541060031232A1900008E0FF122E6E90000AE0B401031232A9904000E05430FF900009E0FD6F7001E4600A904000E054CFFFED4FF09000A1
:401540000EE06401703CFF12278B904005E054F0FFE4C4F854F0C868EFC4540F4804FFFBE4FAF9F8904200E054079033F993FFE4FCFDFE121150E47BFAFAF9F81210C5128C
:401580002C00900003E0FF6003B4011790000BE0FF904004E06F6003123343900003E0FF12325F904007E0FE904006E0FDEEFCED90000CE0FEA3E0FF6D7002EE6C600312D8
:4015C0002610904800E0543FFF900006E04F904800F0900001E09043A1F0900002E09043A2F022E4900068F0A37437F0A3743BF0A37416F090006D741FF0900070740CF0B7
:40160000A37407F0A374D7F0D2AF9044F4E054FDF07B017A00796912268F7F051230227F031230437F011230647F011230857F011230A67FD87E07122F357FD712330D7F78
:401640007F1233137F011231667F171233197F1F12331F7F0C1233257F0212332B7F011233317F011233377F7B12333D1231EB1231FE7D007F001228D27BFF7A3079E41216
:4016800028681232EF900068EFF07B0B7D0012244D1232F5900068EFF07B087D0012244D1232FB900068EFF07B057D0012244D7D007F011228D27BFF7A3079F21228681295
:4016C0003301900068EFF07B007D0112244D123307900068EFF07B037D0112244D1232907C007D64121022AF05900068EFF07B067D0112244D900060E0900068F07D097F82
:40170000011228D2900068E02430FF12311A122ED7900068EFF030E10E7D0B7F011228D27F4C12311A800C7D0B7F011228D27F2012311A900068E030E2127D0E7F001228EF
:40174000D27BFF7A3079FA12286880107D0E7F001228D27BFF7A3079FD122868900068E030E00E7D0D7F011228D27F4412311A800C7D0D7F011228D27F2012311A900068BA
:40178000E030E30E7D0F7F011228D27F4112311A800C7D0F7F011228D27F2012311AE47F64FEFDFC122A0812194B1232E87D007C08E4FF121ABF1213BD1232E180E02290C7
:4017C0005A00E090001BF0905A02E090001CF0905A03E090001DF0905A04E090001EF0905A06E090001FF0905A08E0900020F0905A0AE0900021F0905A10E0900022F09074
:401800005A12E0900023F0905A13E0900024F0905A14E0900025F0905A16E0900026F0905A18E0900027F0905A1AE0900028F0905A20E0900029F0905A22E090002AF09061
:401840005A23E090002BF0905A24E090002CF0905A26E090002DF0905A28E090002EF0905A2AE090002FF0905A30E0900030F0905A32E0900031F0905A33E0900032F09050
:401880005A34E0900033F0905A36E0900034F0905A38E0900035F0905A3AE0900036F0905A00E4F0905A02F0A3F0A3F0905A06F0905A08F0905A0AF0905A10F0905A12F0A6
:4018C000A3F0A3F0905A16F0905A18F0905A1AF0905A20F0905A22F0A3F0A3F0905A26F0905A28F0905A2AF0905A30F0905A32F0A3F0A3F0905A36F0905A38F0905A3AF058
:401900009046E8E0540460229000167401F090500BE0540E900017F090500BE054F1440CF09046E8E054FBF08005E4900016F0904322E05408600E9000407401F09043226B
:40194000E054F7F022E4900040F0229043A1E0540F900001F09043A2E0900002F09043A1E054F0F0A3E0E4F0904800E054C0900006F07F2D122E33904200E0540790000464
:40198000F0904200E05440900005F0904200E05410600890000A7401F08005E490000AF07F04121D159043A0E0541060089000077401F08009E4900007F0FF122A6D9042AC
:4019C00000E05420601A904000E0544070047F0280027F01900008EFF0E4FF122E6E8005E4900008F0904000E05430900009F0E06007904000E054CFF0904200E0541060A8
:401A0000031232B1904004E090000BF0E06005E4FF123343904005E05403900003F0E06005E4FF12325F904007E0FE904006E0FDEEEDFF90000CEEF0A3EFF090000CE0703B
:401A400002A3E06006E4FFFE122610904005E054F0FFE4C4F854F0C868EFC4540F4804FFFBE4FAF9F8904200E054079033F993FFE4FCFDFE121150122E33904220E05401D8
:401A8000600B90000E7401F01232998005E490000EF0904210E05401600B90000F7401F01232D98005E490000FF090400BE0540460079000107401F022E4900010F0229082
:401AC0000073EFF0A3ECF0A3EDF01231C2900076EFF0904393E054087009904683E0541FF08009900076E0FF12317E229046ECE0C394055012904689E0540170028001C3F9
:401B000040057F001231AD122CDB900073E0FFC394024016EFD3940D5010EF14FF122C4B900074E04408F0A3E0F0900073E0B4010D123196900074E04408F0A3E0F0904382
:401B400098E0900018F0900074E0FCA3E0FDECC4F854F0C868EDC4540F48904398F0A3E0900019F0ED540F904399F0A3E090001AF0900074E0C4540190439AF0904200E031
:401B80005407700790003F04F08016E490003FF0904200E0540790003EF0904200E054F8F0904393E054F84403F0E0FF00000090003FE064016010904200E054F8FF9000E5
:401BC0003EE04F904200F0122F8A900018E0904398F0900019E0904399F090001AE090439AF0900076E0FF12317E22904698E0900068F09043007402F09040007408F09039
:401C0000430A74F3F09046987403F09043097484F09043087405F07FA07E867D017C0090006912122D900069121215D3EF9400EE94004028904308E0542070207FE07E01AD
:401C4000FDFC122C0090006912121574FFFBFAF9F81210B890006912122D80C9900068E0904698F09042007401F07B0CFA79091232789046A1EFF07B007A4279227D107CD8
:401C8000011232507B007A4279207D517C10123250E490006DF07F19FEFDFC90006912122D900069121215D3EF9400EE9400403B90006DE0FF64036032904225E05401FEA3
:401CC000EF25E04E540390006DF0E47FE07E01FDFC122C0090006912121574FFFBFAF9F81210B890006912122D80B67B007A4079047D007C011232509040047407F0904031
:401D000006E4F09040087448F0904004E4F09040017402F022900076EFF0904200E05407900077F0900076E0FFB408067E037F038000900078EFF0900077E0146018146063
:401D40001D14602214602614602B2405702F9000777402F0802C9000777401F080249000777403F0801CE4900077F080159000777404F0800D9000777405F080057F00128A
:401D800031AD900077E0FFA3E0C39F4008900076E0FF1222F9900076E01212571DB5001DC2011DCF021DD8031DE5041DF2051DFF0800001E0A904200E054F8440354BFF079
:401DC000804D904200E054F8440154BFF08040904200E054B8F08037904200E054F8440254BFF0802A904200E054F8440454BFF0801D904200E054F8440554BFF08010906A
:401E00004200E054F84442F080057F001231AD900076E0B408051232A980031232B1900077E0FFA3E0C39F5008900076E0FF1222F92290001BE0905A00F090001CE0905A8C
:401E400002F090001DE0905A03F090001EE0905A04F090001FE0905A06F0900020E0905A08F0900021E0905A0AF0900022E0905A10F0900023E0905A12F0900024E0905ACB
:401E800013F0900025E0905A14F0900026E0905A16F0900027E0905A18F0900028E0905A1AF0900029E0905A20F090002AE0905A22F090002BE0905A23F090002CE0905ABA
:401EC00024F090002DE0905A26F090002EE0905A28F090002FE0905A2AF0900030E0905A30F0900031E0905A32F0900032E0905A33F0900033E0905A34F0900034E0905AA9
:401F000036F0900035E0905A38F0900036E0905A3AF0900016E0B4011790500BE054F1FF900017E04F90500BF09046E8E04404F0900040E0B40107904322E04408F02290F3
:401F400000737401F0A3F0900054E0FD900065E0FAA3E0FB7F0112258EEF04900075F0E0FFD394014005E014F0800CEFF404FFC374069F900075F0900051E0FF900075E063
:401F80006F601B900074E004F0A3E004F0E0D3940740E47401F0900073E004F080D9900052E0FF900073E06F600DA3E02407F0900073E004F080E7900074E0900053F0903E
:401FC00000737401F0A3F090005BE0FD900065E0FAA3E0FB7F0112258EEF04900075F0E0FFD394014005E014F0800CEFF404FFC374069F900075F0900058E0FF900075E0D5
:402000006F601B900074E004F0A3E004F0E0D3940740E47401F0900073E004F080D9900059E0FF900073E06F600DA3E02407F0900073E004F080E7900074E090005AF0221D
:402040007B007A4679E8123278EF4405FD7B007A4679E8123284E4F50AE50AC39409502CE50A75F005A424B4F582E43433AF82F5088F09F58312124B8F8285088374039352
:40208000FC740493FD12314D050A80CD7E337F5F122BD27B017A507903123278EF4402FD7B017A5079031232847B017A507913123278EF4402FD7B017A507913123284906E
:4020C00043A0E04440F09043C2E04410F07C337D4F7B007A5179227F087E00122FD97C337D577B007A5179627F087E00122FD99044F47401F0904322E04408F09046ECE0D2
:40210000C394055006904689743AF090480074C0F0121BEB1230C77B007A4379A0C00179B090006D121242D0017F0E7E00122EA39043B0E054FDF0227593007800758346F2
:402140007582E8E04401F0009046ECE0F99046FAE0FAB903225420B40012B8001AEA901FFFF07401901FFEF09046F6F0901FFEE06005901FFFE0FA90480074C0F075810C6E
:4021800090000078007920E4F0A3D8FCD9FAEA900086F0020011750B1F750CFD1220400221DD0215E3E493A3F8E493A34003F68001F208DFF48029E493A3F85407240CC813
:4021C000C333C4540F4420C8834004F456800146F6DFE4800B010204081020408090270DE47E019360BCA3FF543F30E509541FFEE493A360010ECF54C025E060A840B8E48C
:4022000093A3FAE493A3F8E493A3C8C582C8CAC583CAF0A3C8C582C8CAC583CADFE9DEE780BE90FFFF12127D905120E05480F0905122E054F0850B83850C82F0E0440F90AA
:402240005122F0A3E054F0850B83850C82F0E0905123F0A3E054F0850B83850C82F0E0905124F0905120E054DFF0E04440F0E4FFFE122F08905120E04410F07F017E0012E1
:402280002F08905121E0850B83850C82F0905120E054EFF0850B83850C82E05408F0905120E04410F07F017E00122F08905120E054EFF0850B83850C82E070B2905120E000
:4022C00054BFF0E05480F0905122E054F0F0A3E054F0850B83850C82F0E0440F905123F0A3E054F0850B83850C82F0E0440F905124F090000112127D22AE07122FB290008B
:4023000079EFF0B40107906009E054FDF0EE121257232A00233901234802235703236604237505238408000023A17B0C7A0179081232789046A1EFF0227B0C7A0179091288
:4023400032789046A1EFF0227B0C7A01790A1232789046A1EFF0227B0C7A01790B1232789046A1EFF0227B0C7A0179891232789046A1EFF0227B0C7A01790C123278904677
:40238000A1EFF0227B0C7A01790F1232789046A1EFF0900079E0B4010D906009E04402F0227F001231AD22E4900076F0A3EFF0904210E04401F0EFD3940050030224479079
:4023C0004300E0900079F0904380E090007AF0904382E090007BF07F18122B859000767410F0900077E0D394004041904210E0FF9000787404F0900078E0D3940040177F6C
:4024000001122ACCEFB40103D38001C350F1900078E014F080E0904210E054807006900076F08008900077E014F080B6900079E0540470031232C990007AE0904380F0901F
:40244000007BE0904382F0900076E0FF2290FFFF12127DEBF090FFFF12127DEDF090FFFF12127DEFF090FFFE12127D850B83850C82E4F0A3F09000041212A1E004FD90000C
:40248000031212A1E0FF1228D2850B83850C82A3A3E0FF7E007C007D0A121022850B83850C82EDF0E02430FF12311A850B83850C82A3A3E0FF7E007C007D0A121022850B26
:4024C00083850C82A3EFF09000041212A1E0FD9000031212A1E0FF1228D2850B83850C82A3E02430FF12311A90000512127D221232EF900092EFF07B0B7D0012244D122EA0
:40250000D7900092EFF030E30E7D0F7F011228D27F4112311A800C7D0F7F011228D27F2012311A900092E030E00E7D0D7F011228D27F4412311A800C7D0D7F011228D27F56
:402540002012311A900092E030E2127D0E7F001228D27BFF7A33794912286880107D0E7F001228D27BFF7A33794C122868900092E030E10D7D0B7F011228D27F4C12311A87
:40258000227D0B7F011228D27F2012311A22900076EFF0900078EAF0A3EBF0900077EDF0C394035008A374FFF5F0121077900078E0FCA3E0FDAE047802CEC313CE13D8F972
:4025C0002DFBEC3EFA900078E0FEA3E0FF7C007D64121022C3EB9FFBEA9EFA900078E0FEA3E0FF7C017D90121022EF2BFFEE3AFE900077E09033EC937C002FFFEC3EFE90BC
:402600000076E02FFFEC3EFE7D07121022AF0522900076EEF0A3EFF01231C2AD07904007E0FE904006E0FBEEEBFF900076E07002A3E06004EF4E7046904004E0FCC39407B3
:4026400050057F07123343900076E07002A3E07014904008E04440F0900076E0FEA3E0FF122FFF8012900076E0FEA3E0FF122FFF904008E054BFF0AF04123343800B90007D
:4026800076E0FEA3E0FF122FFFAF0512317E229000731212421232E8900073121239120FF790005DF0E92401F9E43AFA120FF790005EF0900073121239E92402F9E43AFAEE
:4026C000120FF790005FF0900073121239E92404F9E43AFA120FF7900061F0900073121239E92407F9E43AFA120FF7900064F0900073121239E92408F9E43AFA12108DFFB3
:40270000900065E5F0F0A3EFF01232E12241004E004A005D0000000101000101076C4A00410000000101000101076C41005500450050000101010145005700010101014157
:40274000004D0041004F00410056004100670041004C0041005C0041004B00410091004100900044008202DC6C0044007D0000BB80410081304400875DC00000410092002B
:4027800043008B0000004100930000E4900076F0904220E04401F0EF605A904300E0900077F0904380E0900078F0904382E0900079F07F18122B859000767410F07F011285
:4027C0002ACCEF64016012904225E0540160EEE0540160E9E4900076F0900077E0540470031232C9900078E0904380F0900079E0904382F0900076E0FF22E47F28FEFDFCAA
:40280000122A087F03122DF4E47F05FEFDFC122A087F03122DF4E47F0FFEFDFC122A087F03122DF4E47F01FEFDFC122A087F02122DF4E47F05FEFDFC122A087F06122D68C3
:402840007F0E122D687F2C122D687F08122D687F01122D687F0C122D687F03122D68E47F05FEFDFC122A082290FFFD12127D12124290FFFE12127D850B83850C827401F011
:40288000A3A3121239120FF7850B83850C82A3F0850B83850C82A3E0FF6030122D22850B83850C82A3A3121239850B83850C82E029F9E43AFA120FF7850B83850C82A3F031
:4028C000850B83850C82E004F080C590000512127D2290FFFF12127DEDF090FFFF12127DEFF0850B83850C82E014601A1460271460342403703E850B83850C82A3E024802E
:40290000FF122D68802E850B83850C82A3E024C0FF122D68801E850B83850C82A3E02494FF122D68800E850B83850C82A3E024D4FF122D6890000212127D22900074ECF061
:40294000A3EDF0900073EFF0D3941F50028001C340057F001231AD900073E0541F25E0FFE433FEE42FFFEE3444FAA9077B01123243900076EEF0A3EFF0900073E075F002E1
:40298000A42400FFE5F03444FAA9077B01A3E0FEA3E0FFFDAC06123252900076E0FEA3E0FF22904308E0540260047E0180027E00900079EEF090430A74F3F0EF6401702515
:4029C00090469804F07F0A7E00122F08904309E054F34408F07F147E00122F08904308E04402F0801D9046987406F07F0A7E00122F08904309E054F34404F0904308E0548C
:402A0000FDF0900079E0FF2290FFFC12127D12122D850B83850C82121215D3EF9400EE9480402E900087121215122C00850B83850C82C083C082121215E42FFFEE3480FED9
:402A4000ED34FFFDEC34FFFCD082D08312122D80C090007D121215850B83850C821212211210C5122C0090000412127D229043A0E04410F0EF6054904300E0900078F0E0F6
:402A8000540470031232C1904382E0900076F0904380E0900077F0904382E054FCF0904380E4F090438204F07F01122ACCEF60F8900078E0540470031232C9900077E09006
:402AC0004380F0900076E0904382F02290FFFF12127DEFF090FFFE12127D1231C2850B83850C82EFF0900000E0FF904390E0FEEF4E900000F0E0FF850B83850C82A3F08506
:402B00000B83850C82A3A3E0F4FEEF5E900000F0850B83850C82E0FF12317E850B83850C82A3E0FF90000312127D2290430A74F3F09046987403F0904309E054F34404F007
:402B4000904308E04404F0E04401F09000777403F0A374E8F0D3900078E09400900077E0940040201232D1EF30E506E4FF1229A2227F017E00122F0890007774FFF5F0120D
:402B8000107780D12290007CEFF0904382E054FDF01232C1904382E05401602090007CE0FF904380E06F6029904382E054FEF0904380EFF0904382E04401F02290007CE074
:402BC000FF904380E06F6002EFF0904382E04401F022ACEAADA08E838F82E493F9601CA3E493F5EAA3E493F5A0A3E49360F1FAA3E493F8A3E493F2DAF6D9E48DA08CEA22F9
:402C0000EC4D4E700D78FCEF24E950032840FD22000078C5904800E0C403035403902C479325E0240FF404FBEF28FF78FFEE38FEED38FDEC38FC50D7EF2BFFEE38FEED38F3
:402C4000FDEC38FC40F22205020304900077EFF0904382E054F7F01232B9904382E05404601C900077E0FF904381E06F6025A3E054FBF0904381EFF0A3E04404F022900009
:402C800077E0FF904381E06F6002EFF0904382E04404F022900073EFF0A3EDF0D3940750028001C340057F001231AD900073E0D3941F50028001C340057F001231AD9000EE
:402CC00074E0540775F020A4FF900073E0541F2480F582E43444F583EFF022904689E0900015F09046F5E0540760249046ECE0C394055012904689743BF09043317401F092
:402D0000E04402F08018904689E04401F0800F9046ECE0C394055006904689743AF01217BF2290FFFF12127DEFF090FFFF12127D122222850B83850C82A3E0FFC4540F85A0
:402D40000B83850C82F0E0FF122DAE850B83850C82A3E0540F850B83850C82F0E0FF122DAE90000212127D2290FFFF12127DEFF090FFFF12127D122222850B83850C82A357
:402D8000E0FFC4540F850B83850C82F0E0FF122DF4850B83850C82A3E0540F850B83850C82F0E0FF122DF490000212127D2290FFFF12127DEFF0122222905120E04420F0C3
:402DC000E054BFF0E054F0F0C083C082E0FF850B83850C82E04410FEEF4ED082D083F07F017E00122F08905120E054EFF090000112127D2290FFFF12127DEFF0905120E0B0
:402E0000549FF0E054F0F0C083C082E0FF850B83850C82E04410FEEF4ED082D083F07F017E00122F08905120E054EFF090000112127D22900076EFF01231C2900076E0FE90
:402E4000D39416500B904800E0543F4440F0801AEED3942C500B904800E0543F4480F08009904800E0543F44C0F012317E22EF6024146012147026904000E054BFF0904273
:402E800000E04420F022904000E04440F0904200E04420F022904200E054DFF0227F001231AD22758600EF4E6027EF60010E75930090006DE0F595A3E0F585A3E0F5848BD8
:402EC000938A838982E0A30586F0A31586DFF6DEF4E4F593F5952290FFFF12127D850B83850C82E4F090004BE0850B83850C82F090004BE054F7F0850B83850C82E0FF90A7
:402F0000000112127D222200EEFA900081E0F88FF0A4FFAEF0E88AF0A42EFEE5F03400FDEF24C9FF78FFEE38FEED38FDE438FC5003022C0022900049EEF0A3EFF090006561
:402F4000E0FEA3E0FF900049E0B5060DA3E0B5070890004CE04480F02290004CE0547FF022123301900092EFF07B007D0112244D900060E0900092F07D097F011228D290AF
:402F80000092E02430FF12311A22900015E0904689F09046ECE0C3940550139046F5E05407600B904331E054FDF0E054FEF0121E3222E4FF904393E0540770089043A5E008
:402FC00054017012904393E054076401700A9043B5E0540160027F0122758600EF4E601BEF60010E8C838D828B958A858984E493A30586F0A31586DFF5DEF3E4F5952290B6
:403000004014E054F0F0904010E4F0904008E04480F0904002EFF0EEA3F0904001E04401F022900041EFF090005DE0FF900041E0B5070890004CE04401F02290004CE054BA
:40304000FEF022900042EFF090005EE0FF900042E0B5070890004CE04402F02290004CE054FDF022900043EFF090005FE0FF900043E0B5070890004CE04404F02290004C30
:40308000E054FBF022900045EFF0900061E0FF900045E0B5070890004CE04410F02290004CE054EFF022900048EFF0900064E0FF900048E0B5070890004CE04440F02290B7
:4030C000004CE054BFF0227B0C7A0179CF123278EF540790586EF0EFC4540FA3F09058767444F022525443202020203A20203A20200020202D20202D2000504D00414D0096
:4031000012097E9044C87401F07C007D1AE4FF12293B7D07E4FF122C942290FFFF12127DEFF0850B83850C82E0FF122D2290000112127D221232907C007D64121022AF053D
:40314000900092EFF07B067D0112244D22EC4D6011ED60010C8B938A838982E4F0A3DDFCDCFA75930022900055EFF05402640270047F0180027F00EF6003121F3F22EF5484
:40318000016004D2AF8002C2AFEF5402FF9044F4E054FD4FF022904308E054017003122B2B904382E054DFF0E04410F02290FFFF12127DEFF09046EA7401F0900001121227
:4031C0007D229044F4E0F84402F0E85402FF10AF012274014FFF221231C2904382E04430F012317E9044C07401F02290004EE0700912310090004E7401F01231D722900053
:4032000090E070091227FA9000907401F012326C221232F5900092EFF07B087D0012244D221232FB900092EFF07B057D0012244D22123307900092EFF07B037D0112244D8E
:40324000228B938A838982E0FFA3E0FE759300228B938A838982EDF0A3ECF075930022EF5403FF904005E054FC4FF0227F0C122D689000917401F0228B938A838982E075A0
:403280009300FF228B938A838982EDF075930022900065E0FEA3E0FF22904220E054FEF0229043A0E054EFF022904200E04410F022904200E054EFF022904300E04402F0C0
:4032C00022904300E04404F022904300E054FBF022904308E05420FF22904210E054FEF0229044C07401F0229044C87401F02290005DE0FF2290005EE0FF2290005FE0FF2C
:4033000022900061E0FF22900064E0FF22900067EFF02290005CEFF022900050EFF022900053EFF022900054EFF022900057EFF02290005AEFF02290005BEFF02290004D59
:40334000EFF022904004EFF022504D00414D00007F7F000000000000040400040000000E0052013004011701EC20011901EC200140023380CC10014101A780014201A780BA
:403380000143042C012F04A780CA200144025408D402014501A408014601A408014701A408014802AF84B001014C02B008EC04015101000200510000200051300030005111
:4033C000C000100051F00010010000100001140008000140000A00014C00020001500000201F1C1F1E1F1E1F1F1E1F1E1F0003020500030501040602040C061803303E4AFE
:403400000201030004050600000000000000000000000000000000000000000000000000000000000000000000000000000000000000000000000000000000000000000077
:40344000000000000000000000000000000000000000000000000000000000000000000000000000000000000000000000000000000000000000000000000000000000004C
:40348000000000000000000000000000000000000000000000000000000000000000000000000000000000000000000000000000000000000000000000000000000000000C
:4034C00000000000000000000000000000000000000000000000000000000000000000000000000000000000000000000000000000000000000000000000000000000000CC
:40350000000000000000000000000000000000000000000000000000000000000000000000000000000000000000000000000000000000000000000000000000000000008B
:0200000480007A
:0200000490006A
:0400000000004005B7
:0200000490105A
:04000000BC90ACAF55
:0200000490303A
:0200000037E2E5
:0200000490501A
:0C00000000011E02806903011E19B84BAC
:0200000490402A
:4000000000000000000000000000000000000000000000000000000000000000000000000000000000000000000000000000000000000000000000000000000000000000C0
:00000001FF
